{
  "contractName": "DecentralizedSIEM",
  "abi": [
    {
      "inputs": [],
      "stateMutability": "nonpayable",
      "type": "constructor"
    },
    {
      "anonymous": false,
      "inputs": [
        {
          "indexed": true,
          "internalType": "address",
          "name": "analyst",
          "type": "address"
        }
      ],
      "name": "AnalystAdded",
      "type": "event"
    },
    {
      "anonymous": false,
      "inputs": [
        {
          "indexed": true,
          "internalType": "address",
          "name": "analyst",
          "type": "address"
        }
      ],
      "name": "AnalystRemoved",
      "type": "event"
    },
    {
      "anonymous": false,
      "inputs": [
        {
          "indexed": false,
          "internalType": "address",
          "name": "by",
          "type": "address"
        }
      ],
      "name": "ContractPaused",
      "type": "event"
    },
    {
      "anonymous": false,
      "inputs": [
        {
          "indexed": false,
          "internalType": "address",
          "name": "by",
          "type": "address"
        }
      ],
      "name": "ContractUnpaused",
      "type": "event"
    },
    {
      "anonymous": false,
      "inputs": [
        {
          "indexed": true,
          "internalType": "uint256",
          "name": "id",
          "type": "uint256"
        },
        {
          "indexed": false,
          "internalType": "string",
          "name": "eventType",
          "type": "string"
        },
        {
          "indexed": false,
          "internalType": "string",
          "name": "severity",
          "type": "string"
        },
        {
          "indexed": false,
          "internalType": "address",
          "name": "reporter",
          "type": "address"
        }
      ],
      "name": "LogAdded",
      "type": "event"
    },
    {
      "anonymous": false,
      "inputs": [
        {
          "indexed": true,
          "internalType": "uint256",
          "name": "id",
          "type": "uint256"
        },
        {
          "indexed": false,
          "internalType": "address",
          "name": "resolver",
          "type": "address"
        },
        {
          "indexed": false,
          "internalType": "string",
          "name": "resolutionNotes",
          "type": "string"
        }
      ],
      "name": "LogResolved",
      "type": "event"
    },
    {
      "anonymous": false,
      "inputs": [
        {
          "indexed": true,
          "internalType": "uint256",
          "name": "id",
          "type": "uint256"
        },
        {
          "indexed": false,
          "internalType": "string",
          "name": "description",
          "type": "string"
        }
      ],
      "name": "LogUpdated",
      "type": "event"
    },
    {
      "inputs": [],
      "name": "admin",
      "outputs": [
        {
          "internalType": "address",
          "name": "",
          "type": "address"
        }
      ],
      "stateMutability": "view",
      "type": "function"
    },
    {
      "inputs": [
        {
          "internalType": "address",
          "name": "",
          "type": "address"
        },
        {
          "internalType": "uint256",
          "name": "",
          "type": "uint256"
        }
      ],
      "name": "analystLogs",
      "outputs": [
        {
          "internalType": "uint256",
          "name": "",
          "type": "uint256"
        }
      ],
      "stateMutability": "view",
      "type": "function"
    },
    {
      "inputs": [
        {
          "internalType": "address",
          "name": "",
          "type": "address"
        }
      ],
      "name": "authorizedAnalysts",
      "outputs": [
        {
          "internalType": "bool",
          "name": "",
          "type": "bool"
        }
      ],
      "stateMutability": "view",
      "type": "function"
    },
    {
      "inputs": [],
      "name": "contractPaused",
      "outputs": [
        {
          "internalType": "bool",
          "name": "",
          "type": "bool"
        }
      ],
      "stateMutability": "view",
      "type": "function"
    },
    {
      "inputs": [],
      "name": "logCount",
      "outputs": [
        {
          "internalType": "uint256",
          "name": "",
          "type": "uint256"
        }
      ],
      "stateMutability": "view",
      "type": "function"
    },
    {
      "inputs": [
        {
          "internalType": "uint256",
          "name": "",
          "type": "uint256"
        }
      ],
      "name": "logs",
      "outputs": [
        {
          "internalType": "uint256",
          "name": "id",
          "type": "uint256"
        },
        {
          "internalType": "string",
          "name": "source",
          "type": "string"
        },
        {
          "internalType": "string",
          "name": "eventType",
          "type": "string"
        },
        {
          "internalType": "string",
          "name": "description",
          "type": "string"
        },
        {
          "internalType": "uint256",
          "name": "timestamp",
          "type": "uint256"
        },
        {
          "internalType": "address",
          "name": "reporter",
          "type": "address"
        },
        {
          "internalType": "bool",
          "name": "isResolved",
          "type": "bool"
        },
        {
          "internalType": "string",
          "name": "severity",
          "type": "string"
        },
        {
          "internalType": "address",
          "name": "resolver",
          "type": "address"
        },
        {
          "internalType": "string",
          "name": "resolutionNotes",
          "type": "string"
        },
        {
          "internalType": "uint256",
          "name": "resolvedAt",
          "type": "uint256"
        }
      ],
      "stateMutability": "view",
      "type": "function"
    },
    {
      "inputs": [
        {
          "internalType": "string",
          "name": "_source",
          "type": "string"
        },
        {
          "internalType": "string",
          "name": "_eventType",
          "type": "string"
        },
        {
          "internalType": "string",
          "name": "_description",
          "type": "string"
        },
        {
          "internalType": "string",
          "name": "_severity",
          "type": "string"
        }
      ],
      "name": "addSecurityLog",
      "outputs": [],
      "stateMutability": "nonpayable",
      "type": "function"
    },
    {
      "inputs": [
        {
          "internalType": "uint256",
          "name": "_id",
          "type": "uint256"
        },
        {
          "internalType": "string",
          "name": "_resolutionNotes",
          "type": "string"
        }
      ],
      "name": "resolveLog",
      "outputs": [],
      "stateMutability": "nonpayable",
      "type": "function"
    },
    {
      "inputs": [
        {
          "internalType": "address",
          "name": "_analyst",
          "type": "address"
        }
      ],
      "name": "addAnalyst",
      "outputs": [],
      "stateMutability": "nonpayable",
      "type": "function"
    },
    {
      "inputs": [
        {
          "internalType": "address",
          "name": "_analyst",
          "type": "address"
        }
      ],
      "name": "removeAnalyst",
      "outputs": [],
      "stateMutability": "nonpayable",
      "type": "function"
    },
    {
      "inputs": [
        {
          "internalType": "uint256",
          "name": "_id",
          "type": "uint256"
        },
        {
          "internalType": "string",
          "name": "_newDescription",
          "type": "string"
        }
      ],
      "name": "updateLogDescription",
      "outputs": [],
      "stateMutability": "nonpayable",
      "type": "function"
    },
    {
      "inputs": [],
      "name": "pauseContract",
      "outputs": [],
      "stateMutability": "nonpayable",
      "type": "function"
    },
    {
      "inputs": [],
      "name": "unpauseContract",
      "outputs": [],
      "stateMutability": "nonpayable",
      "type": "function"
    }
  ],
  "bytecode": "0x608060405234801561001057600080fd5b50600480546001600160a01b03191633908117825560006003819055908152600160208190526040909120805460ff19169091179055805460ff60a01b19169055611302806100606000396000f3fe608060405234801561001057600080fd5b50600436106100cf5760003560e01c8063a503898f1161008c578063d57e599811610066578063d57e599814610178578063e79899bd1461018b578063f851a440146101b5578063fe0c0994146101ca576100cf565b8063a503898f14610155578063aaab17141461015d578063b33712c514610170576100cf565b806333e3bf89146100d4578063439766ce146100e95780635066ce72146100f15780638a67456a1461011a57806399b58a15146101225780639fba3a9e14610135575b600080fd5b6100e76100e2366004610ef0565b6101dd565b005b6100e76102d8565b6101046100ff366004610de6565b61034f565b6040516101119190610fcd565b60405180910390f35b610104610364565b6100e7610130366004610e30565b610374565b610148610143366004610e07565b6105e0565b604051610111919061119a565b610148610611565b6100e761016b366004610ef0565b610617565b6100e7610768565b6100e7610186366004610de6565b6107cf565b61019e610199366004610ed8565b6108a8565b6040516101119b9a999897969594939291906111a3565b6101bd610bc5565b6040516101119190610f8d565b6100e76101d8366004610de6565b610bd4565b3360009081526001602052604090205460ff168061020557506004546001600160a01b031633145b61022a5760405162461bcd60e51b815260040161022190611172565b60405180910390fd5b600454600160a01b900460ff16156102545760405162461bcd60e51b81526004016102219061111e565b6003548211156102765760405162461bcd60e51b8152600401610221906110f2565b6000828152602081815260409091208251909161029a916003840191850190610cb0565b50827fcb77dc1a67b2982f66806656068ba84c6679f9a70adb50f4d35ef01e13e563e8836040516102cb9190610fd8565b60405180910390a2505050565b6004546001600160a01b031633146103025760405162461bcd60e51b8152600401610221906110b0565b6004805460ff60a01b1916600160a01b1790556040517f81990fd9a5c552b8e3677917d8a03c07678f0d2cb68f88b634aca2022e9bd19f90610345903390610f8d565b60405180910390a1565b60016020526000908152604090205460ff1681565b600454600160a01b900460ff1681565b600454600160a01b900460ff161561039e5760405162461bcd60e51b81526004016102219061111e565b3360009081526001602052604090205460ff16806103c657506004546001600160a01b031633145b6103e25760405162461bcd60e51b815260040161022190611172565b600380549060006103f28361128f565b909155505060408051610160810182526003548082526020808301888152838501889052606084018790524260808501523360a0850152600060c0850181905260e08501879052610100850181905285518084018752818152610120860152610140850181905292835282825293909120825181559251805192939261047e9260018501920190610cb0565b506040820151805161049a916002840191602090910190610cb0565b50606082015180516104b6916003840191602090910190610cb0565b506080820151600482015560a082015160058201805460c08501511515600160a01b0260ff60a01b196001600160a01b039094166001600160a01b0319909216919091179290921691909117905560e0820151805161051f916006840191602090910190610cb0565b506101008201516007820180546001600160a01b0319166001600160a01b039092169190911790556101208201518051610563916008840191602090910190610cb0565b5061014091909101516009909101553360008181526002602090815260408083206003805482546001810184559286529390942001919091559054905190917f1db53cffeb1ef664e95bea26f5f573ce1e008900ba6ed4a9d27428a5292a33fd916105d2918791869190610feb565b60405180910390a250505050565b600260205281600052604060002081815481106105fc57600080fd5b90600052602060002001600091509150505481565b60035481565b3360009081526001602052604090205460ff168061063f57506004546001600160a01b031633145b61065b5760405162461bcd60e51b815260040161022190611172565b600454600160a01b900460ff16156106855760405162461bcd60e51b81526004016102219061111e565b6003548211156106a75760405162461bcd60e51b8152600401610221906110f2565b600082815260208190526040902060050154600160a01b900460ff16156106e05760405162461bcd60e51b815260040161022190611029565b60008281526020818152604090912060058101805460ff60a01b1916600160a01b1790556007810180546001600160a01b031916331790558251909161072d916008840191850190610cb0565b5042600982015560405183907f159f82c2a435a1f296576cddaf5e7ccec44b5e9fa7fc420a2094d3323910ce39906102cb9033908690610fa1565b6004546001600160a01b031633146107925760405162461bcd60e51b8152600401610221906110b0565b6004805460ff60a01b191690556040517f5b65b0c1363b3003db9bcc5e1fd8805a6d6bf5bf6dc9d3431ee4494cd7d1176690610345903390610f8d565b6004546001600160a01b031633146107f95760405162461bcd60e51b8152600401610221906110b0565b6004546001600160a01b03828116911614156108275760405162461bcd60e51b815260040161022190611083565b6001600160a01b03811660009081526001602052604090205460ff1661085f5760405162461bcd60e51b81526004016102219061114a565b6001600160a01b038116600081815260016020526040808220805460ff19169055517f7c458c5d882d4bac81718bdc208467c7b0fbffe4b7788c95429ee3f1041e3a009190a250565b600060208190529081526040902080546001820180549192916108ca90611254565b80601f01602080910402602001604051908101604052809291908181526020018280546108f690611254565b80156109435780601f1061091857610100808354040283529160200191610943565b820191906000526020600020905b81548152906001019060200180831161092657829003601f168201915b50505050509080600201805461095890611254565b80601f016020809104026020016040519081016040528092919081815260200182805461098490611254565b80156109d15780601f106109a6576101008083540402835291602001916109d1565b820191906000526020600020905b8154815290600101906020018083116109b457829003601f168201915b5050505050908060030180546109e690611254565b80601f0160208091040260200160405190810160405280929190818152602001828054610a1290611254565b8015610a5f5780601f10610a3457610100808354040283529160200191610a5f565b820191906000526020600020905b815481529060010190602001808311610a4257829003601f168201915b5050505060048301546005840154600685018054949592946001600160a01b0383169450600160a01b90920460ff169291610a9990611254565b80601f0160208091040260200160405190810160405280929190818152602001828054610ac590611254565b8015610b125780601f10610ae757610100808354040283529160200191610b12565b820191906000526020600020905b815481529060010190602001808311610af557829003601f168201915b505050600784015460088501805494956001600160a01b03909216949193509150610b3c90611254565b80601f0160208091040260200160405190810160405280929190818152602001828054610b6890611254565b8015610bb55780601f10610b8a57610100808354040283529160200191610bb5565b820191906000526020600020905b815481529060010190602001808311610b9857829003601f168201915b505050505090806009015490508b565b6004546001600160a01b031681565b6004546001600160a01b03163314610bfe5760405162461bcd60e51b8152600401610221906110b0565b600454600160a01b900460ff1615610c285760405162461bcd60e51b81526004016102219061111e565b6001600160a01b03811660009081526001602052604090205460ff1615610c615760405162461bcd60e51b815260040161022190611057565b6001600160a01b0381166000818152600160208190526040808320805460ff1916909217909155517f7983bf765122dbe312da3d7f6200807b68aadcde82d50db5b9c967fb53052c919190a250565b828054610cbc90611254565b90600052602060002090601f016020900481019282610cde5760008555610d24565b82601f10610cf757805160ff1916838001178555610d24565b82800160010185558215610d24579182015b82811115610d24578251825591602001919060010190610d09565b50610d30929150610d34565b5090565b5b80821115610d305760008155600101610d35565b80356001600160a01b0381168114610d6057600080fd5b919050565b600082601f830112610d75578081fd5b813567ffffffffffffffff80821115610d9057610d906112b6565b604051601f8301601f191681016020018281118282101715610db457610db46112b6565b604052828152848301602001861015610dcb578384fd5b82602086016020830137918201602001929092529392505050565b600060208284031215610df7578081fd5b610e0082610d49565b9392505050565b60008060408385031215610e19578081fd5b610e2283610d49565b946020939093013593505050565b60008060008060808587031215610e45578182fd5b843567ffffffffffffffff80821115610e5c578384fd5b610e6888838901610d65565b95506020870135915080821115610e7d578384fd5b610e8988838901610d65565b94506040870135915080821115610e9e578384fd5b610eaa88838901610d65565b93506060870135915080821115610ebf578283fd5b50610ecc87828801610d65565b91505092959194509250565b600060208284031215610ee9578081fd5b5035919050565b60008060408385031215610f02578182fd5b82359150602083013567ffffffffffffffff811115610f1f578182fd5b610f2b85828601610d65565b9150509250929050565b6001600160a01b03169052565b60008151808452815b81811015610f6757602081850181015186830182015201610f4b565b81811115610f785782602083870101525b50601f01601f19169290920160200192915050565b6001600160a01b0391909116815260200190565b6001600160a01b0383168152604060208201819052600090610fc590830184610f42565b949350505050565b901515815260200190565b600060208252610e006020830184610f42565b600060608252610ffe6060830186610f42565b82810360208401526110108186610f42565b91505060018060a01b0383166040830152949350505050565b602080825260149082015273131bd9c8185b1c9958591e481c995cdbdb1d995960621b604082015260600190565b602080825260129082015271105b1c9958591e48185b88185b985b1e5cdd60721b604082015260600190565b60208082526013908201527221b0b73737ba103932b6b7bb329030b236b4b760691b604082015260600190565b60208082526022908201527f4f6e6c792061646d696e2063616e20706572666f726d2074686973206163746960408201526137b760f11b606082015260800190565b602080825260129082015271131bd9c8191bd95cc81b9bdd08195e1a5cdd60721b604082015260600190565b60208082526012908201527110dbdb9d1c9858dd081a5cc81c185d5cd95960721b604082015260600190565b6020808252600e908201526d139bdd08185b88185b985b1e5cdd60921b604082015260600190565b6020808252600e908201526d139bdd08185d5d1a1bdc9a5e995960921b604082015260600190565b90815260200190565b60006101608d83528060208401526111bd8184018e610f42565b905082810360408401526111d1818d610f42565b905082810360608401526111e5818c610f42565b608084018b90526001600160a01b038a1660a085015288151560c085015283810360e085015290506112178188610f42565b9050611227610100840187610f35565b82810361012084015261123a8186610f42565b915050826101408301529c9b505050505050505050505050565b60028104600182168061126857607f821691505b6020821081141561128957634e487b7160e01b600052602260045260246000fd5b50919050565b60006000198214156112af57634e487b7160e01b81526011600452602481fd5b5060010190565b634e487b7160e01b600052604160045260246000fdfea26469706673582212207076b051a71aafe8d9d3a7ef8491d176ff0dbc12712ae22e40447aa01ca9843564736f6c63430008000033",
  "immutableReferences": {},
  "source": "// SPDX-License-Identifier: MIT\r\npragma solidity ^0.8.0;\r\n\r\ncontract DecentralizedSIEM {\r\n    // Structure for security logs\r\n    struct SecurityLog {\r\n        uint256 id;                // Unique identifier for each log\r\n        string source;             // Source of the security event\r\n        string eventType;          // Type of security event\r\n        string description;        // Detailed description\r\n        uint256 timestamp;         // When the event occurred\r\n        address reporter;          // Who reported the event\r\n        bool isResolved;           // Resolution status\r\n        string severity;           // Severity level of the event\r\n        address resolver;          // Who resolved the event\r\n        string resolutionNotes;    // Notes regarding the resolution\r\n        uint256 resolvedAt;        // Timestamp when the log was resolved\r\n    }\r\n\r\n    // State variables\r\n    mapping(uint256 => SecurityLog) public logs;                   // Stores all security logs\r\n    mapping(address => bool) public authorizedAnalysts;            // Track authorized analysts\r\n    mapping(address => uint256[]) public analystLogs;              // Track logs per analyst\r\n    uint256 public logCount;                                        // Keeps track of total logs\r\n    address public admin;                                           // Admin address\r\n    bool public contractPaused;                                    // Emergency pause functionality\r\n    \r\n    // Events\r\n    event LogAdded(uint256 indexed id, string eventType, string severity, address reporter);\r\n    event LogResolved(uint256 indexed id, address resolver, string resolutionNotes);\r\n    event AnalystAdded(address indexed analyst);\r\n    event AnalystRemoved(address indexed analyst);\r\n    event LogUpdated(uint256 indexed id, string description);\r\n    event ContractPaused(address by);\r\n    event ContractUnpaused(address by);\r\n\r\n    // Modifiers\r\n    modifier onlyAdmin() {\r\n        require(msg.sender == admin, \"Only admin can perform this action\");\r\n        _;\r\n    }\r\n\r\n    modifier onlyAuthorized() {\r\n        require(authorizedAnalysts[msg.sender] || msg.sender == admin, \"Not authorized\");\r\n        _;\r\n    }\r\n\r\n    modifier whenNotPaused() {\r\n        require(!contractPaused, \"Contract is paused\");\r\n        _;\r\n    }\r\n\r\n    constructor() {\r\n        admin = msg.sender;                      // Set the contract deployer as admin\r\n        logCount = 0;                            // Initialize log count\r\n        authorizedAnalysts[msg.sender] = true;  // Authorize the admin as an analyst\r\n        contractPaused = false;                   // Initialize contract as not paused\r\n    }\r\n\r\n    // Function to add new security log with severity\r\n    function addSecurityLog(\r\n        string memory _source,\r\n        string memory _eventType,\r\n        string memory _description,\r\n        string memory _severity\r\n    ) public whenNotPaused onlyAuthorized { // Use the onlyAuthorized modifier here\r\n        logCount++;\r\n        logs[logCount] = SecurityLog(\r\n            logCount,\r\n            _source,\r\n            _eventType,\r\n            _description,\r\n            block.timestamp,\r\n            msg.sender,\r\n            false,\r\n            _severity,\r\n            address(0),\r\n            \"\",\r\n            0\r\n        );\r\n\r\n        analystLogs[msg.sender].push(logCount);  // Track log by reporter\r\n        emit LogAdded(logCount, _eventType, _severity, msg.sender);\r\n    }\r\n\r\n\r\n    // Enhanced resolve log function with notes\r\n    function resolveLog(\r\n        uint256 _id, \r\n        string memory _resolutionNotes\r\n    ) public onlyAuthorized whenNotPaused {\r\n        require(_id <= logCount, \"Log does not exist\");\r\n        require(!logs[_id].isResolved, \"Log already resolved\");\r\n        \r\n        SecurityLog storage log = logs[_id];\r\n        log.isResolved = true;\r\n        log.resolver = msg.sender;\r\n        log.resolutionNotes = _resolutionNotes;\r\n        log.resolvedAt = block.timestamp;\r\n        \r\n        emit LogResolved(_id, msg.sender, _resolutionNotes);\r\n    }\r\n\r\n    // Function to add authorized analyst\r\n    function addAnalyst(address _analyst) public onlyAdmin whenNotPaused {\r\n        require(!authorizedAnalysts[_analyst], \"Already an analyst\");\r\n        authorizedAnalysts[_analyst] = true;\r\n        emit AnalystAdded(_analyst);\r\n    }\r\n\r\n    // Function to remove authorized analyst\r\n    function removeAnalyst(address _analyst) public onlyAdmin {\r\n        require(_analyst != admin, \"Cannot remove admin\");\r\n        require(authorizedAnalysts[_analyst], \"Not an analyst\");\r\n        authorizedAnalysts[_analyst] = false;\r\n        emit AnalystRemoved(_analyst);\r\n    }\r\n\r\n    // Function to update log description\r\n    function updateLogDescription(uint256 _id, string memory _newDescription) public onlyAuthorized whenNotPaused {\r\n        require(_id <= logCount, \"Log does not exist\");\r\n        \r\n        SecurityLog storage log = logs[_id];\r\n        log.description = _newDescription;  // Update the log description\r\n        emit LogUpdated(_id, _newDescription); // Emit event for log update\r\n    }\r\n\r\n    // Function to pause the contract\r\n    function pauseContract() public onlyAdmin {\r\n        contractPaused = true;\r\n        emit ContractPaused(msg.sender);\r\n    }\r\n\r\n    // Function to unpause the contract\r\n    function unpauseContract() public onlyAdmin {\r\n        contractPaused = false;\r\n        emit ContractUnpaused(msg.sender);\r\n    }\r\n}\r\n\r\n",
  "sourcePath": "/mnt/c/Users/indul/Documents/finalyear/prototype/contracts/DecentralizedSIEM.sol",
  "compiler": {
    "name": "solc",
    "version": "0.8.0+commit.c7dfd78e.Emscripten.clang"
  },
  "schemaVersion": "3.4.16",
  "updatedAt": "2024-12-26T15:39:54.180Z",
  "devdoc": {
    "kind": "dev",
    "methods": {},
    "version": 1
  },
  "userdoc": {
    "kind": "user",
    "methods": {},
    "version": 1
  }
}